
/usr/libexec/qemu-kvm \
-machine q35,accel=kvm -smp 8 -m 16G \
-cpu host \
-hda ol89.qcow2 \
-vnc :8 -monitor stdio \
-device virtio-net-pci,netdev=tapnet,mac=52:54:00:12:34:00 \
-netdev tap,id=tapnet,ifname=tap10,script=qemu-ifup,downscript=no,vhost=off \
-object filter-dump,netdev=tapnet,file=log.pcap,id=pcap0


# tcpdump -nxr log.pcap
... ...
22:59:00.515750 00:00:00:00:33:33 Null > 00:00:00:00:00:00 Unknown DSAP 0xc2 Information, send seq 0, rcv seq 0, Flags [Command], length 50
	0x0000:  7240 b788 e351 0026 4242 0300 0000 0000
	0x0010:  8000 5254 0018 05b5 0000 0000 8000 5254
	0x0020:  0018 05b5 8001 0000 1400 0200 0200
22:59:01.123780 00:00:00:00:00:00 > 00:00:00:00:00:00, ethertype Unknown (0x5254), length 110:
	0x0000:  0018 05b5 5254 0012 3400 0800 4500 0054
	0x0010:  ab15 4000 4001 3dd5 c0a8 7cf3 0ad3 0950
	0x0020:  0800 e62e 0001 0018 b426 9067 0000 0000
	0x0030:  0457 0a00 0000 0000 1011 1213 1415 1617
	0x0040:  1819 1a1b 1c1d 1e1f 2021 2223 2425 2627
	0x0050:  2829 2a2b 2c2d 2e2f 3031 3233 3435 3637
22:59:01.123838 00:00:00:00:33:33 > 00:00:00:00:00:00, ethertype Unknown (0x5254), length 110:
	0x0000:  0012 3400 5254 0018 05b5 0800 4500 0054
	0x0010:  b290 0000 4001 765a 0ad3 0950 c0a8 7cf3
	0x0020:  0000 ee2e 0001 0018 b426 9067 0000 0000
	0x0030:  0457 0a00 0000 0000 1011 1213 1415 1617
	0x0040:  1819 1a1b 1c1d 1e1f 2021 2223 2425 2627
	0x0050:  2829 2a2b 2c2d 2e2f 3031 3233 3435 3637
22:59:02.147916 00:00:00:00:00:00 > 00:00:00:00:00:00, ethertype Unknown (0x5254), length 110:
	0x0000:  0018 05b5 5254 0012 3400 0800 4500 0054
	0x0010:  af00 4000 4001 39ea c0a8 7cf3 0ad3 0950
	0x0020:  0800 15d0 0001 0019 b526 9067 0000 0000
	0x0030:  d3b4 0a00 0000 0000 1011 1213 1415 1617
	0x0040:  1819 1a1b 1c1d 1e1f 2021 2223 2425 2627
	0x0050:  2829 2a2b 2c2d 2e2f 3031 3233 3435 3637
22:59:02.147976 00:00:00:00:33:33 > 00:00:00:00:00:00, ethertype Unknown (0x5254), length 110:
	0x0000:  0012 3400 5254 0018 05b5 0800 4500 0054
	0x0010:  b567 0000 4001 7383 0ad3 0950 c0a8 7cf3
	0x0020:  0000 1dd0 0001 0019 b526 9067 0000 0000
	0x0030:  d3b4 0a00 0000 0000 1011 1213 1415 1617
	0x0040:  1819 1a1b 1c1d 1e1f 2021 2223 2425 2627
	0x0050:  2829 2a2b 2c2d 2e2f 3031 3233 3435 3637
22:59:02.563786 00:00:00:00:33:33 Null > 00:00:00:00:00:00 Unknown DSAP 0xc2 Information, send seq 0, rcv seq 0, Flags [Command], length 50
	0x0000:  7240 b788 e351 0026 4242 0300 0000 0000
	0x0010:  8000 5254 0018 05b5 0000 0000 8000 5254
	0x0020:  0018 05b5 8001 0000 1400 0200 0200
... ...
